:020000040800F2
:10000000000001202503000875030008750300089F
:100010007503000875030008750300080000000060
:100020000000000000000000000000007503000850
:100030007503000800000000750300087503000840
:1000400075030008750300087503000875030008B0
:1000500075030008750300087503000875030008A0
:100060007503000875030008750300087503000890
:100070007503000875030008750300087503000880
:1000800075030008750300087503000800000000F0
:1000900000000000000000000000000075030008E0
:1000A0007503000875030008750300087503000850
:1000B0007503000875030008750300087503000840
:1000C0007503000875030008750300087503000830
:1000D00075030008750300087503000800000000A0
:1000E0007503000875030008750300080000000090
:1000F0000000000000000000000000007503000880
:10010000000000007503000875030008750300086F
:1001100000000000000000000000000000000000DF
:1001200075030008750300087503000875030008CF
:10013000750300080000000000000000000000003F
:10014000000000000000000000000000750300082F
:10015000750300087503000875030008750300089F
:10016000750300087503000800000000000000008F
:10017000000000000000000000000000000000007F
:1001800000000000750300080000000000000000EF
:0401900075030008EB
:10019400DFF89C00016841F470010160DFF894000D
:1001A4005FF0004101607047B0EC108AB0E8F00FD6
:1001B40080F30988062080F31488BFF36F8FBDE8AD
:1001C4000F500CBCEFF3098404F1480484F309884C
:1001D40063B6104700B5EFF3098020E9F00F20ED76
:1001E400108A00F059F9B0EC108AB0E8F00F80F3EF
:1001F400098800BD00B5EFF3098020E9F00F20ED78
:10020400108A00F027F9B0EC108AB0E8F00F80F300
:10021400098800BDBFF35B8F50E8003F8B4204D1D7
:1002240040E80023002B00D10846BFF35B8F7047E2
:1002340088ED00E034EF00E00348044B834202D031
:10024400034B03B11847704704000020040000204A
:10025400000000000548064B1B1AD90F01EBA3014F
:10026400491002D0034B03B1184770470400002023
:10027400040000200000000010B5064C237843B9A8
:10028400FFF7DAFF044B13B10448AFF300800123F6
:10029400237010BD800000200000000078060008D4
:1002A40008B5054B1BB105490548AFF30080BDE80F
:1002B4000840FFF7CFBF00BF00000000840000200B
:1002C4007806000870B50D4D0D4C641BA410002673
:1002D400A64209D10B4D0C4C00F0CCF9641BA410C0
:1002E4000026A64205D170BD55F8043B9847013657
:1002F400EEE755F8043B98470136F2E7900600080C
:10030400900600089006000894060008034AD2F8F4
:10031400883043F47003C2F88830704700ED00E081
:10032400DFF834D00D480E490E4A002302E0D458B9
:10033400C4500433C4188C42F9D30B4A0B4C002329
:1003440001E013600432A242FBD3FFF7DFFFFFF7A3
:10035400B9FF00F05FF970470000012000000020A1
:10036400040000209806000880000020C006002039
:10037400FEE710B5029C392C00D800BE80E81E00B0
:1003840010BD000030B5114C114B85B00025009311
:1003940004F13003029368463A230393656284F8B8
:1003A4002850E562A56125772562E56025746561BD
:1003B400019500F0E1F8012384F828300223C4E910
:1003C40000536062A56005B030BD00BF9C000020F2
:1003D400B7050008012938B50D4600D900BE084C00
:1003E4000C2303FB05431B7C03B100BE00F0C4F8DF
:1003F4000C2303FB054401232374E06038BD00BFD4
:100404009C00002008B500F073F8044B0122586AE0
:100414001A60BDE80840FFF7C7BE00BF9C0000207B
:1004240070B50B4CD4E90036054603B900BE5DB186
:1004340000F09EF8A3680C2202FB06442B4463617F
:100444000223237400F096F8BDE8704000F0AAB8C7
:100454009C0000200E4A5368012B30B500D900BE21
:1004640053680C2101FB03240133E060094C012B88
:1004740005D803FB01105D1C205C012805D10C216B
:10048400536001FB0322D06830BD2B46EFE700BF69
:100494009C000020A0000020144B5A680C2101FB92
:1004A400023270B5D0609A6801329A60002002214D
:1004B4001A4693F82840022C09D19468DE6AA642B1
:1004C40007D1012083F828000D46012001E0012C0A
:1004D400FAD001394C1CA3F10C03EAD100B15560E8
:1004E40053680C2101FB0322D06870BD9C000020DE
:1004F40008B573B6FFF74CFE4FF0E0231748D3F866
:10050400081D01F1BC031A6840F8042D9942A3F1B7
:100514000403F8D14FF0E023114A1249C3F8082D1F
:1005240091631149D163D3F8202D6FEA02426FEA37
:100534001242C3F8202D1A6922F001021A61002226
:100544009A610A4A4FF47A711268B2FBF1F2013AE5
:100554005A611A6942F007021A6108BDC0020020FC
:1005640000020020F9010008D90100080000002061
:1005740073B6704763B67047D0E9023203EB820367
:100584004FF0807243F84C2C026843F8502C044A14
:1005940043F8542C426843F8682CA3F1C800704710
:1005A400090400084FF0E0234FF08052C3F8042DF3
:1005B400704700B100BE20BFFDE70000094C08B53C
:1005C400236843F080532360636843F4804363608B
:1005D400636983F4804363614FF4FA70FFF720FF8B
:1005E400F6E700BF00080240094C08B5236843F051
:1005F40080632360636843F400536360636983F436
:10060400005363614FF47A70FFF70AFFF6E700BF07
:100614000008024010B5124A136B86B043F004037D
:1006240013638024FFF7AEFE0E4B0F4900940022A3
:1006340002A8FFF79EFE02A80021FFF7CBFE0B4B9A
:100644000B490094002202A8FFF793FE02A801219F
:10065400FFF7C0FEFFF7D6FE002006B010BD00BFB6
:1006640000380240C0040020ED050008C00200204C
:10067400C1050008F8B500BFF8BC08BC9E46704729
:0C068400F8B500BFF8BC08BC9E467047EB
:04069000A5020008B7
:040694007D020008DB
:040698000024F40046
:0400000508000325C7
:00000001FF
